{
  "_format": "hh-sol-artifact-1",
  "contractName": "BlackJack",
  "sourceName": "contracts/BlackJack.sol",
  "abi": [
    {
      "inputs": [
        {
          "internalType": "address",
          "name": "target",
          "type": "address"
        }
      ],
      "name": "AddressEmptyCode",
      "type": "error"
    },
    {
      "inputs": [
        {
          "internalType": "address",
          "name": "implementation",
          "type": "address"
        }
      ],
      "name": "ERC1967InvalidImplementation",
      "type": "error"
    },
    {
      "inputs": [],
      "name": "ERC1967NonPayable",
      "type": "error"
    },
    {
      "inputs": [],
      "name": "EnforcedPause",
      "type": "error"
    },
    {
      "inputs": [],
      "name": "ExpectedPause",
      "type": "error"
    },
    {
      "inputs": [],
      "name": "FailedCall",
      "type": "error"
    },
    {
      "inputs": [],
      "name": "InvalidInitialization",
      "type": "error"
    },
    {
      "inputs": [],
      "name": "NotInitializing",
      "type": "error"
    },
    {
      "inputs": [
        {
          "internalType": "address",
          "name": "owner",
          "type": "address"
        }
      ],
      "name": "OwnableInvalidOwner",
      "type": "error"
    },
    {
      "inputs": [
        {
          "internalType": "address",
          "name": "account",
          "type": "address"
        }
      ],
      "name": "OwnableUnauthorizedAccount",
      "type": "error"
    },
    {
      "inputs": [],
      "name": "UUPSUnauthorizedCallContext",
      "type": "error"
    },
    {
      "inputs": [
        {
          "internalType": "bytes32",
          "name": "slot",
          "type": "bytes32"
        }
      ],
      "name": "UUPSUnsupportedProxiableUUID",
      "type": "error"
    },
    {
      "anonymous": false,
      "inputs": [
        {
          "indexed": true,
          "internalType": "address",
          "name": "user",
          "type": "address"
        },
        {
          "components": [
            {
              "internalType": "uint8[6]",
              "name": "userCards",
              "type": "uint8[6]"
            },
            {
              "internalType": "uint8[6]",
              "name": "dealerCards",
              "type": "uint8[6]"
            },
            {
              "internalType": "uint8",
              "name": "dealerCount",
              "type": "uint8"
            },
            {
              "internalType": "uint8",
              "name": "userCount",
              "type": "uint8"
            },
            {
              "internalType": "bool",
              "name": "isGameStart",
              "type": "bool"
            },
            {
              "internalType": "uint256",
              "name": "stakes",
              "type": "uint256"
            },
            {
              "internalType": "uint256",
              "name": "winCounts",
              "type": "uint256"
            },
            {
              "internalType": "uint256",
              "name": "gameCounts",
              "type": "uint256"
            },
            {
              "internalType": "uint256",
              "name": "winStakes",
              "type": "uint256"
            },
            {
              "internalType": "int256",
              "name": "totalStakes",
              "type": "int256"
            }
          ],
          "indexed": false,
          "internalType": "struct BlackJack.Game",
          "name": "game",
          "type": "tuple"
        }
      ],
      "name": "GameState",
      "type": "event"
    },
    {
      "anonymous": false,
      "inputs": [
        {
          "indexed": false,
          "internalType": "uint64",
          "name": "version",
          "type": "uint64"
        }
      ],
      "name": "Initialized",
      "type": "event"
    },
    {
      "anonymous": false,
      "inputs": [
        {
          "indexed": true,
          "internalType": "address",
          "name": "previousOwner",
          "type": "address"
        },
        {
          "indexed": true,
          "internalType": "address",
          "name": "newOwner",
          "type": "address"
        }
      ],
      "name": "OwnershipTransferred",
      "type": "event"
    },
    {
      "anonymous": false,
      "inputs": [
        {
          "indexed": false,
          "internalType": "address",
          "name": "account",
          "type": "address"
        }
      ],
      "name": "Paused",
      "type": "event"
    },
    {
      "anonymous": false,
      "inputs": [
        {
          "indexed": false,
          "internalType": "address",
          "name": "account",
          "type": "address"
        }
      ],
      "name": "Unpaused",
      "type": "event"
    },
    {
      "anonymous": false,
      "inputs": [
        {
          "indexed": true,
          "internalType": "address",
          "name": "implementation",
          "type": "address"
        }
      ],
      "name": "Upgraded",
      "type": "event"
    },
    {
      "anonymous": false,
      "inputs": [
        {
          "indexed": false,
          "internalType": "address",
          "name": "winer",
          "type": "address"
        },
        {
          "indexed": false,
          "internalType": "uint8",
          "name": "dealerValue",
          "type": "uint8"
        },
        {
          "indexed": false,
          "internalType": "uint8",
          "name": "userValue",
          "type": "uint8"
        }
      ],
      "name": "Win",
      "type": "event"
    },
    {
      "stateMutability": "payable",
      "type": "fallback"
    },
    {
      "inputs": [],
      "name": "UPGRADE_INTERFACE_VERSION",
      "outputs": [
        {
          "internalType": "string",
          "name": "",
          "type": "string"
        }
      ],
      "stateMutability": "view",
      "type": "function"
    },
    {
      "inputs": [
        {
          "internalType": "address",
          "name": "user",
          "type": "address"
        }
      ],
      "name": "consoleLog",
      "outputs": [],
      "stateMutability": "view",
      "type": "function"
    },
    {
      "inputs": [],
      "name": "deposit",
      "outputs": [],
      "stateMutability": "payable",
      "type": "function"
    },
    {
      "inputs": [],
      "name": "getContractBalance",
      "outputs": [
        {
          "internalType": "uint256",
          "name": "",
          "type": "uint256"
        }
      ],
      "stateMutability": "view",
      "type": "function"
    },
    {
      "inputs": [
        {
          "internalType": "address",
          "name": "user",
          "type": "address"
        }
      ],
      "name": "getGame",
      "outputs": [
        {
          "components": [
            {
              "internalType": "uint8[6]",
              "name": "userCards",
              "type": "uint8[6]"
            },
            {
              "internalType": "uint8[6]",
              "name": "dealerCards",
              "type": "uint8[6]"
            },
            {
              "internalType": "uint8",
              "name": "dealerCount",
              "type": "uint8"
            },
            {
              "internalType": "uint8",
              "name": "userCount",
              "type": "uint8"
            },
            {
              "internalType": "bool",
              "name": "isGameStart",
              "type": "bool"
            },
            {
              "internalType": "uint256",
              "name": "stakes",
              "type": "uint256"
            },
            {
              "internalType": "uint256",
              "name": "winCounts",
              "type": "uint256"
            },
            {
              "internalType": "uint256",
              "name": "gameCounts",
              "type": "uint256"
            },
            {
              "internalType": "uint256",
              "name": "winStakes",
              "type": "uint256"
            },
            {
              "internalType": "int256",
              "name": "totalStakes",
              "type": "int256"
            }
          ],
          "internalType": "struct BlackJack.Game",
          "name": "",
          "type": "tuple"
        },
        {
          "internalType": "uint8",
          "name": "",
          "type": "uint8"
        },
        {
          "internalType": "uint8",
          "name": "",
          "type": "uint8"
        }
      ],
      "stateMutability": "view",
      "type": "function"
    },
    {
      "inputs": [],
      "name": "getPlayers",
      "outputs": [
        {
          "components": [
            {
              "internalType": "uint8[6]",
              "name": "userCards",
              "type": "uint8[6]"
            },
            {
              "internalType": "uint8[6]",
              "name": "dealerCards",
              "type": "uint8[6]"
            },
            {
              "internalType": "uint8",
              "name": "dealerCount",
              "type": "uint8"
            },
            {
              "internalType": "uint8",
              "name": "userCount",
              "type": "uint8"
            },
            {
              "internalType": "bool",
              "name": "isGameStart",
              "type": "bool"
            },
            {
              "internalType": "uint256",
              "name": "stakes",
              "type": "uint256"
            },
            {
              "internalType": "uint256",
              "name": "winCounts",
              "type": "uint256"
            },
            {
              "internalType": "uint256",
              "name": "gameCounts",
              "type": "uint256"
            },
            {
              "internalType": "uint256",
              "name": "winStakes",
              "type": "uint256"
            },
            {
              "internalType": "int256",
              "name": "totalStakes",
              "type": "int256"
            }
          ],
          "internalType": "struct BlackJack.Game[]",
          "name": "",
          "type": "tuple[]"
        }
      ],
      "stateMutability": "view",
      "type": "function"
    },
    {
      "inputs": [],
      "name": "getPlayersIndex",
      "outputs": [
        {
          "internalType": "address[]",
          "name": "",
          "type": "address[]"
        }
      ],
      "stateMutability": "view",
      "type": "function"
    },
    {
      "inputs": [],
      "name": "hit",
      "outputs": [],
      "stateMutability": "nonpayable",
      "type": "function"
    },
    {
      "inputs": [],
      "name": "initGame",
      "outputs": [],
      "stateMutability": "payable",
      "type": "function"
    },
    {
      "inputs": [],
      "name": "initialize",
      "outputs": [],
      "stateMutability": "nonpayable",
      "type": "function"
    },
    {
      "inputs": [],
      "name": "isEndGame",
      "outputs": [],
      "stateMutability": "payable",
      "type": "function"
    },
    {
      "inputs": [],
      "name": "owner",
      "outputs": [
        {
          "internalType": "address",
          "name": "",
          "type": "address"
        }
      ],
      "stateMutability": "view",
      "type": "function"
    },
    {
      "inputs": [],
      "name": "paused",
      "outputs": [
        {
          "internalType": "bool",
          "name": "",
          "type": "bool"
        }
      ],
      "stateMutability": "view",
      "type": "function"
    },
    {
      "inputs": [
        {
          "internalType": "uint256",
          "name": "",
          "type": "uint256"
        }
      ],
      "name": "playerIndex",
      "outputs": [
        {
          "internalType": "address",
          "name": "",
          "type": "address"
        }
      ],
      "stateMutability": "view",
      "type": "function"
    },
    {
      "inputs": [],
      "name": "proxiableUUID",
      "outputs": [
        {
          "internalType": "bytes32",
          "name": "",
          "type": "bytes32"
        }
      ],
      "stateMutability": "view",
      "type": "function"
    },
    {
      "inputs": [],
      "name": "renounceOwnership",
      "outputs": [],
      "stateMutability": "nonpayable",
      "type": "function"
    },
    {
      "inputs": [
        {
          "internalType": "address",
          "name": "newOwner",
          "type": "address"
        }
      ],
      "name": "transferOwnership",
      "outputs": [],
      "stateMutability": "nonpayable",
      "type": "function"
    },
    {
      "inputs": [
        {
          "internalType": "address",
          "name": "newImplementation",
          "type": "address"
        },
        {
          "internalType": "bytes",
          "name": "data",
          "type": "bytes"
        }
      ],
      "name": "upgradeToAndCall",
      "outputs": [],
      "stateMutability": "payable",
      "type": "function"
    },
    {
      "inputs": [
        {
          "internalType": "address",
          "name": "",
          "type": "address"
        }
      ],
      "name": "userGame",
      "outputs": [
        {
          "internalType": "uint8",
          "name": "dealerCount",
          "type": "uint8"
        },
        {
          "internalType": "uint8",
          "name": "userCount",
          "type": "uint8"
        },
        {
          "internalType": "bool",
          "name": "isGameStart",
          "type": "bool"
        },
        {
          "internalType": "uint256",
          "name": "stakes",
          "type": "uint256"
        },
        {
          "internalType": "uint256",
          "name": "winCounts",
          "type": "uint256"
        },
        {
          "internalType": "uint256",
          "name": "gameCounts",
          "type": "uint256"
        },
        {
          "internalType": "uint256",
          "name": "winStakes",
          "type": "uint256"
        },
        {
          "internalType": "int256",
          "name": "totalStakes",
          "type": "int256"
        }
      ],
      "stateMutability": "view",
      "type": "function"
    },
    {
      "inputs": [
        {
          "internalType": "uint256",
          "name": "amount",
          "type": "uint256"
        }
      ],
      "name": "withdraw",
      "outputs": [],
      "stateMutability": "nonpayable",
      "type": "function"
    },
    {
      "stateMutability": "payable",
      "type": "receive"
    }
  ],
  "bytecode": "0x60a06040523073ffffffffffffffffffffffffffffffffffffffff1660809073ffffffffffffffffffffffffffffffffffffffff1681525034801561004357600080fd5b506080516157c56200006e60003960008181612a6701528181612abc0152612c7701526157c56000f3fe6080604052600436106101235760003560e01c8063802292b2116100a0578063ad3cb1cc11610064578063ad3cb1cc14610367578063d0e30db014610392578063dcde1d341461039c578063f2fde38b146103e0578063fc39a488146104095761012a565b8063802292b2146102905780638129fc1c146102bb5780638b5b9ccc146102d25780638d1a4b28146102fd5780638da5cb5b1461033c5761012a565b806352d1902d116100e757806352d1902d146101cf578063541ab379146101fa5780635c975abb146102235780636f9fb98a1461024e578063715018a6146102795761012a565b80632ae3594a1461012c5780632e1a7d4d1461014357806332eb25641461016c5780633dc0ad5a146101765780634f1ef286146101b35761012a565b3661012a57005b005b34801561013857600080fd5b50610141610413565b005b34801561014f57600080fd5b5061016a6004803603810190610165919061362e565b6109c4565b005b610174610b05565b005b34801561018257600080fd5b5061019d6004803603810190610198919061362e565b610e4c565b6040516101aa919061369c565b60405180910390f35b6101cd60048036038101906101c89190613829565b610e8b565b005b3480156101db57600080fd5b506101e4610eaa565b6040516101f1919061389e565b60405180910390f35b34801561020657600080fd5b50610221600480360381019061021c91906138b9565b610edd565b005b34801561022f57600080fd5b50610238611356565b6040516102459190613901565b60405180910390f35b34801561025a57600080fd5b5061026361137b565b604051610270919061392b565b60405180910390f35b34801561028557600080fd5b5061028e611383565b005b34801561029c57600080fd5b506102a5611397565b6040516102b29190613a04565b60405180910390f35b3480156102c757600080fd5b506102d0611425565b005b3480156102de57600080fd5b506102e76115bb565b6040516102f49190613c97565b60405180910390f35b34801561030957600080fd5b50610324600480360381019061031f91906138b9565b611842565b60405161033393929190613d9a565b60405180910390f35b34801561034857600080fd5b50610351611b1c565b60405161035e919061369c565b60405180910390f35b34801561037357600080fd5b5061037c611b54565b6040516103899190613e53565b60405180910390f35b61039a611b8d565b005b3480156103a857600080fd5b506103c360048036038101906103be91906138b9565b611c21565b6040516103d7989796959493929190613e84565b60405180910390f35b3480156103ec57600080fd5b50610407600480360381019061040291906138b9565b611c90565b005b610411611d16565b005b6000803373ffffffffffffffffffffffffffffffffffffffff1673ffffffffffffffffffffffffffffffffffffffff16815260200190815260200160002060020160029054906101000a900460ff166104a1576040517f08c379a000000000000000000000000000000000000000000000000000000000815260040161049890613f4e565b60405180910390fd5b6104a9612720565b60008060003373ffffffffffffffffffffffffffffffffffffffff1673ffffffffffffffffffffffffffffffffffffffff168152602001908152602001600020905060068160020160019054906101000a900460ff1660ff1611156107795760008160020160026101000a81548160ff0219169083151502179055507f082f97b5bdad4d2777e699f33184d5939610d140239622c6f1719254cae4ae35336105c7836000016006806020026040519081016040528092919082600680156105ab576020028201916000905b82829054906101000a900460ff1660ff16815260200190600101906020826000010492830192600103820291508084116105745790505b50505050508460020160019054906101000a900460ff16612761565b6106478460010160068060200260405190810160405280929190826006801561062b576020028201916000905b82829054906101000a900460ff1660ff16815260200190600101906020826000010492830192600103820291508084116105f45790505b50505050508560020160009054906101000a900460ff16612761565b60405161065693929190613f6e565b60405180910390a180600401600081548092919061067390613fd4565b91905055508060030154816006016000828254610690919061401c565b9250508190555080600301548160070160008282546106af9190614050565b9250508190555060003373ffffffffffffffffffffffffffffffffffffffff16600283600301546106e09190614094565b6040516106ec90614107565b60006040518083038185875af1925050503d8060008114610729576040519150601f19603f3d011682016040523d82523d6000602084013e61072e565b606091505b5050905080610772576040517f08c379a000000000000000000000000000000000000000000000000000000000815260040161076990614168565b60405180910390fd5b50506109c2565b6107816128da565b816000018260020160019054906101000a900460ff1660ff16600681106107ab576107aa614188565b5b602091828204019190066101000a81548160ff021916908360ff16021790555080600201600181819054906101000a900460ff16809291906107ec906141b7565b91906101000a81548160ff021916908360ff1602179055505060156108878260000160068060200260405190810160405280929190826006801561086b576020028201916000905b82829054906101000a900460ff1660ff16815260200190600101906020826000010492830192600103820291508084116108345790505b50505050508360020160019054906101000a900460ff16612761565b60ff1611156109695760008160020160026101000a81548160ff0219169083151502179055507f082f97b5bdad4d2777e699f33184d5939610d140239622c6f1719254cae4ae3530600061095184600001600680602002604051908101604052809291908260068015610935576020028201916000905b82829054906101000a900460ff1660ff16815260200190600101906020826000010492830192600103820291508084116108fe5790505b50505050508560020160019054906101000a900460ff16612761565b60405161096093929190614225565b60405180910390a15b3373ffffffffffffffffffffffffffffffffffffffff167ffd72f95605b0925620f68441cd92a22ba95768ba7ff91db15f253b904564d7b5826040516109af9190615105565b60405180910390a26109c033610edd565b505b565b6109cc612942565b80471015610a0f576040517f08c379a0000000000000000000000000000000000000000000000000000000008152600401610a0690615193565b60405180910390fd5b6000610a19611b1c565b73ffffffffffffffffffffffffffffffffffffffff1682604051610a3c90614107565b60006040518083038185875af1925050503d8060008114610a79576040519150601f19603f3d011682016040523d82523d6000602084013e610a7e565b606091505b5050905080610ac2576040517f08c379a0000000000000000000000000000000000000000000000000000000008152600401610ab990614168565b60405180910390fd5b610b016040518060400160405280600981526020017f77697468647261773a0000000000000000000000000000000000000000000000815250836129c9565b5050565b610b0d612720565b6000349050662386f26fc10000811015610b5c576040517f08c379a0000000000000000000000000000000000000000000000000000000008152600401610b5390615225565b60405180910390fd5b600a47610b699190615274565b811115610bab576040517f08c379a0000000000000000000000000000000000000000000000000000000008152600401610ba290615317565b60405180910390fd5b60008060003373ffffffffffffffffffffffffffffffffffffffff1673ffffffffffffffffffffffffffffffffffffffff16815260200190815260200160002090508060020160029054906101000a900460ff16610c215760018160020160026101000a81548160ff0219169083151502179055505b6000816005015403610cd5576002339080600181540180825580915050600190039060005260206000200160009091909190916101000a81548173ffffffffffffffffffffffffffffffffffffffff021916908373ffffffffffffffffffffffffffffffffffffffff160217905550610cd46040518060400160405280600c81526020017f706c61796572496e6465783a00000000000000000000000000000000000000008152506002805490506129c9565b5b806005016000815480929190610cea90613fd4565b9190505550818160030181905550610d006128da565b81600101600060068110610d1757610d16614188565b5b602091828204019190066101000a81548160ff021916908360ff16021790555060018160020160006101000a81548160ff021916908360ff160217905550610d5d6128da565b81600001600060068110610d7457610d73614188565b5b602091828204019190066101000a81548160ff021916908360ff160217905550610d9c6128da565b81600001600160068110610db357610db2614188565b5b602091828204019190066101000a81548160ff021916908360ff16021790555060028160020160016101000a81548160ff021916908360ff1602179055503373ffffffffffffffffffffffffffffffffffffffff167ffd72f95605b0925620f68441cd92a22ba95768ba7ff91db15f253b904564d7b582604051610e379190615105565b60405180910390a2610e4833610edd565b5050565b60028181548110610e5c57600080fd5b906000526020600020016000915054906101000a900473ffffffffffffffffffffffffffffffffffffffff1681565b610e93612a65565b610e9c82612b4b565b610ea68282612b56565b5050565b6000610eb4612c75565b7f360894a13ba1a3210667c828492db98dca3e2076cc3735a920a3ca505d382bbc60001b905090565b610ee5612720565b60008060008373ffffffffffffffffffffffffffffffffffffffff1673ffffffffffffffffffffffffffffffffffffffff1681526020019081526020016000206040518061014001604052908160008201600680602002604051908101604052809291908260068015610f93576020028201916000905b82829054906101000a900460ff1660ff1681526020019060010190602082600001049283019260010382029150808411610f5c5790505b5050505050815260200160018201600680602002604051908101604052809291908260068015610ffe576020028201916000905b82829054906101000a900460ff1660ff1681526020019060010190602082600001049283019260010382029150808411610fc75790505b505050505081526020016002820160009054906101000a900460ff1660ff1660ff1681526020016002820160019054906101000a900460ff1660ff1660ff1681526020016002820160029054906101000a900460ff161515151581526020016003820154815260200160048201548152602001600582015481526020016006820154815260200160078201548152505090506110ce6040518060400160405280600c81526020017f6465616c657243617264733a0000000000000000000000000000000000000000815250612cfc565b60005b816040015160ff1681101561111457611107826020015182600681106110fa576110f9614188565b5b602002015160ff16612d95565b80806001019150506110d1565b5061115b6040518060400160405280600c81526020017f6465616c6572436f756e743a0000000000000000000000000000000000000000815250826040015160ff166129c9565b6111ae6040518060400160405280600c81526020017f6465616c657256616c75653a00000000000000000000000000000000000000008152506111a683602001518460400151612761565b60ff166129c9565b6111ec6040518060400160405280600a81526020017f7573657243617264733a00000000000000000000000000000000000000000000815250612cfc565b60005b816060015160ff16811015611232576112258260000151826006811061121857611217614188565b5b602002015160ff16612d95565b80806001019150506111ef565b506112796040518060400160405280600a81526020017f75736572436f756e743a00000000000000000000000000000000000000000000815250826060015160ff166129c9565b6112cc6040518060400160405280600a81526020017f7573657256616c75653a000000000000000000000000000000000000000000008152506112c483600001518460600151612761565b60ff166129c9565b61130f6040518060400160405280600c81526020017f697347616d6553746172743a00000000000000000000000000000000000000008152508260800151612e2e565b6113526040518060400160405280600781526020017f7374616b65733a000000000000000000000000000000000000000000000000008152508260a001516129c9565b5050565b600080611361612eca565b90508060000160009054906101000a900460ff1691505090565b600047905090565b61138b612942565b6113956000612ef2565b565b6060600280548060200260200160405190810160405280929190818152602001828054801561141b57602002820191906000526020600020905b8160009054906101000a900473ffffffffffffffffffffffffffffffffffffffff1673ffffffffffffffffffffffffffffffffffffffff16815260200190600101908083116113d1575b5050505050905090565b600061142f612fc9565b905060008160000160089054906101000a900460ff1615905060008260000160009054906101000a900467ffffffffffffffff1690506000808267ffffffffffffffff1614801561147d5750825b9050600060018367ffffffffffffffff161480156114b2575060003073ffffffffffffffffffffffffffffffffffffffff163b145b9050811580156114c0575080155b156114f7576040517ff92ee8a900000000000000000000000000000000000000000000000000000000815260040160405180910390fd5b60018560000160006101000a81548167ffffffffffffffff021916908367ffffffffffffffff16021790555083156115475760018560000160086101000a81548160ff0219169083151502179055505b61155033612fdd565b611558612ff1565b83156115b45760008560000160086101000a81548160ff0219169083151502179055507fc7f505b2f371ae2175ee4913f4499e1f2633a7b5936321eed1cdaeb6115181d260016040516115ab9190615386565b60405180910390a15b5050505050565b6060600060028054905067ffffffffffffffff8111156115de576115dd6136fe565b5b60405190808252806020026020018201604052801561161757816020015b611604613551565b8152602001906001900390816115fc5790505b50905060005b60028054905081101561183a576000806002838154811061164157611640614188565b5b9060005260206000200160009054906101000a900473ffffffffffffffffffffffffffffffffffffffff1673ffffffffffffffffffffffffffffffffffffffff1673ffffffffffffffffffffffffffffffffffffffff1681526020019081526020016000206040518061014001604052908160008201600680602002604051908101604052809291908260068015611714576020028201916000905b82829054906101000a900460ff1660ff16815260200190600101906020826000010492830192600103820291508084116116dd5790505b505050505081526020016001820160068060200260405190810160405280929190826006801561177f576020028201916000905b82829054906101000a900460ff1660ff16815260200190600101906020826000010492830192600103820291508084116117485790505b505050505081526020016002820160009054906101000a900460ff1660ff1660ff1681526020016002820160019054906101000a900460ff1660ff1660ff1681526020016002820160029054906101000a900460ff161515151581526020016003820154815260200160048201548152602001600582015481526020016006820154815260200160078201548152505082828151811061182257611821614188565b5b6020026020010181905250808060010191505061161d565b508091505090565b61184a613551565b60008060008060008673ffffffffffffffffffffffffffffffffffffffff1673ffffffffffffffffffffffffffffffffffffffff168152602001908152602001600020905061189885612ffb565b6118a185610edd565b8061192282600101600680602002604051908101604052809291908260068015611906576020028201916000905b82829054906101000a900460ff1660ff16815260200190600101906020826000010492830192600103820291508084116118cf5790505b50505050508360020160009054906101000a900460ff16612761565b6119a283600001600680602002604051908101604052809291908260068015611986576020028201916000905b82829054906101000a900460ff1660ff168152602001906001019060208260000104928301926001038202915080841161194f5790505b50505050508460020160019054906101000a900460ff16612761565b826040518061014001604052908160008201600680602002604051908101604052809291908260068015611a11576020028201916000905b82829054906101000a900460ff1660ff16815260200190600101906020826000010492830192600103820291508084116119da5790505b5050505050815260200160018201600680602002604051908101604052809291908260068015611a7c576020028201916000905b82829054906101000a900460ff1660ff1681526020019060010190602082600001049283019260010382029150808411611a455790505b505050505081526020016002820160009054906101000a900460ff1660ff1660ff1681526020016002820160019054906101000a900460ff1660ff1660ff1681526020016002820160029054906101000a900460ff16151515158152602001600382015481526020016004820154815260200160058201548152602001600682015481526020016007820154815250509250935093509350509193909250565b600080611b27613094565b90508060000160009054906101000a900473ffffffffffffffffffffffffffffffffffffffff1691505090565b6040518060400160405280600581526020017f352e302e3000000000000000000000000000000000000000000000000000000081525081565b611b95612942565b67016345785d8a0000341015611be0576040517f08c379a0000000000000000000000000000000000000000000000000000000008152600401611bd790615413565b60405180910390fd5b611c1f6040518060400160405280600881526020017f6465706f7369743a000000000000000000000000000000000000000000000000815250346129c9565b565b60006020528060005260406000206000915090508060020160009054906101000a900460ff16908060020160019054906101000a900460ff16908060020160029054906101000a900460ff16908060030154908060040154908060050154908060060154908060070154905088565b611c98612942565b600073ffffffffffffffffffffffffffffffffffffffff168173ffffffffffffffffffffffffffffffffffffffff1603611d0a5760006040517f1e4fbdf7000000000000000000000000000000000000000000000000000000008152600401611d01919061369c565b60405180910390fd5b611d1381612ef2565b50565b6000803373ffffffffffffffffffffffffffffffffffffffff1673ffffffffffffffffffffffffffffffffffffffff16815260200190815260200160002060020160029054906101000a900460ff16611da4576040517f08c379a0000000000000000000000000000000000000000000000000000000008152600401611d9b90613f4e565b60405180910390fd5b611dac612720565b60008060003373ffffffffffffffffffffffffffffffffffffffff1673ffffffffffffffffffffffffffffffffffffffff16815260200190815260200160002090506000611e7082600001600680602002604051908101604052809291908260068015611e54576020028201916000905b82829054906101000a900460ff1660ff1681526020019060010190602082600001049283019260010382029150808411611e1d5790505b50505050508360020160019054906101000a900460ff16612761565b90506000611ef483600101600680602002604051908101604052809291908260068015611ed8576020028201916000905b82829054906101000a900460ff1660ff1681526020019060010190602082600001049283019260010382029150808411611ea15790505b50505050508460020160009054906101000a900460ff16612761565b905060008360020160026101000a81548160ff0219169083151502179055505b60118160ff1610156123c75760068360020160009054906101000a900460ff1660ff1611156120ec577f082f97b5bdad4d2777e699f33184d5939610d140239622c6f1719254cae4ae35338284604051611f7093929190613f6e565b60405180910390a1826004016000815480929190611f8d90613fd4565b91905055508260030154836006016000828254611faa919061401c565b925050819055508260030154836007016000828254611fc99190614050565b9250508190555060003373ffffffffffffffffffffffffffffffffffffffff1660028560030154611ffa9190614094565b60405161200690614107565b60006040518083038185875af1925050503d8060008114612043576040519150601f19603f3d011682016040523d82523d6000602084013e612048565b606091505b505090508061208c576040517f08c379a000000000000000000000000000000000000000000000000000000000815260040161208390614168565b60405180910390fd5b3373ffffffffffffffffffffffffffffffffffffffff167ffd72f95605b0925620f68441cd92a22ba95768ba7ff91db15f253b904564d7b5856040516120d29190615105565b60405180910390a26120e333610edd565b5050505061271e565b6120f46128da565b836001018460020160009054906101000a900460ff1660ff166006811061211e5761211d614188565b5b602091828204019190066101000a81548160ff021916908360ff16021790555082600201600081819054906101000a900460ff168092919061215f906141b7565b91906101000a81548160ff021916908360ff160217905550506121f8836001016006806020026040519081016040528092919082600680156121dc576020028201916000905b82829054906101000a900460ff1660ff16815260200190600101906020826000010492830192600103820291508084116121a55790505b50505050508460020160009054906101000a900460ff16612761565b905060118160ff16148015612221575060028360020160009054906101000a900460ff1660ff16145b80156122ae5750600060048460010160006006811061224357612242614188565b5b602091828204019190069054906101000a900460ff166122639190615433565b60ff1614806122ad5750600060048460010160016006811061228857612287614188565b5b602091828204019190069054906101000a900460ff166122a89190615433565b60ff16145b5b156123c2576122bb6128da565b836001018460020160009054906101000a900460ff1660ff16600681106122e5576122e4614188565b5b602091828204019190066101000a81548160ff021916908360ff16021790555082600201600081819054906101000a900460ff1680929190612326906141b7565b91906101000a81548160ff021916908360ff160217905550506123bf836001016006806020026040519081016040528092919082600680156123a3576020028201916000905b82829054906101000a900460ff1660ff168152602001906001019060208260000104928301926001038202915080841161236c5790505b50505050508460020160009054906101000a900460ff16612761565b90505b611f14565b3373ffffffffffffffffffffffffffffffffffffffff167ffd72f95605b0925620f68441cd92a22ba95768ba7ff91db15f253b904564d7b58460405161240d9190615105565b60405180910390a261241e33610edd565b60158260ff1611158015612436575060158160ff1611155b801561244757508060ff168260ff16115b80612465575060158260ff1611158015612464575060158160ff16115b5b156125bf577f082f97b5bdad4d2777e699f33184d5939610d140239622c6f1719254cae4ae3533828460405161249d93929190613f6e565b60405180910390a18260040160008154809291906124ba90613fd4565b919050555082600301548360060160008282546124d7919061401c565b9250508190555082600301548360070160008282546124f69190614050565b9250508190555060003373ffffffffffffffffffffffffffffffffffffffff16600285600301546125279190614094565b60405161253390614107565b60006040518083038185875af1925050503d8060008114612570576040519150601f19603f3d011682016040523d82523d6000602084013e612575565b606091505b50509050806125b9576040517f08c379a00000000000000000000000000000000000000000000000000000000081526004016125b090614168565b60405180910390fd5b5061271a565b8060ff168260ff16036126be577f082f97b5bdad4d2777e699f33184d5939610d140239622c6f1719254cae4ae356000828460405161260093929190613f6e565b60405180910390a160003373ffffffffffffffffffffffffffffffffffffffff16846003015460405161263290614107565b60006040518083038185875af1925050503d806000811461266f576040519150601f19603f3d011682016040523d82523d6000602084013e612674565b606091505b50509050806126b8576040517f08c379a00000000000000000000000000000000000000000000000000000000081526004016126af90614168565b60405180910390fd5b50612719565b7f082f97b5bdad4d2777e699f33184d5939610d140239622c6f1719254cae4ae353082846040516126f193929190613f6e565b60405180910390a182600301548360070160008282546127119190615464565b925050819055505b5b5050505b565b612728611356565b1561275f576040517fd93c066500000000000000000000000000000000000000000000000000000000815260040160405180910390fd5b565b600061276b612720565b60008060005b8460ff1681101561288957600a600487836006811061279357612792614188565b5b60200201516127a29190615433565b60ff16106127be57600a836127b791906154a7565b925061287c565b600060048783600681106127d5576127d4614188565b5b60200201516127e49190615433565b60ff161461282e576001600487836006811061280357612802614188565b5b60200201516128129190615433565b61281c91906154a7565b8361282791906154a7565b925061287b565b6000600487836006811061284557612844614188565b5b60200201516128549190615433565b60ff160361287a578180612867906141b7565b925050600b8361287791906154a7565b92505b5b5b8080600101915050612771565b505b60008160ff1611156128cf5760158260ff1611156128c557600a826128b091906154dc565b915080806128bd90615511565b9150506128ca565b6128cf565b61288b565b819250505092915050565b60006128e4612720565b600160008154809291906128f790613fd4565b91905055506034423033434060015460405160200161291a9594939291906155c4565b6040516020818303038152906040528051906020012060001c61293d9190615623565b905090565b61294a6130bc565b73ffffffffffffffffffffffffffffffffffffffff16612968611b1c565b73ffffffffffffffffffffffffffffffffffffffff16146129c75761298b6130bc565b6040517f118cdaa70000000000000000000000000000000000000000000000000000000081526004016129be919061369c565b60405180910390fd5b565b612a6182826040516024016129df929190615654565b6040516020818303038152906040527fb60e72cc000000000000000000000000000000000000000000000000000000007bffffffffffffffffffffffffffffffffffffffffffffffffffffffff19166020820180517bffffffffffffffffffffffffffffffffffffffffffffffffffffffff83818316178352505050506130c4565b5050565b7f000000000000000000000000000000000000000000000000000000000000000073ffffffffffffffffffffffffffffffffffffffff163073ffffffffffffffffffffffffffffffffffffffff161480612b1257507f000000000000000000000000000000000000000000000000000000000000000073ffffffffffffffffffffffffffffffffffffffff16612af96130de565b73ffffffffffffffffffffffffffffffffffffffff1614155b15612b49576040517fe07c8dba00000000000000000000000000000000000000000000000000000000815260040160405180910390fd5b565b612b53612942565b50565b8173ffffffffffffffffffffffffffffffffffffffff166352d1902d6040518163ffffffff1660e01b8152600401602060405180830381865afa925050508015612bbe57506040513d601f19601f82011682018060405250810190612bbb91906156b0565b60015b612bff57816040517f4c9c8ce3000000000000000000000000000000000000000000000000000000008152600401612bf6919061369c565b60405180910390fd5b7f360894a13ba1a3210667c828492db98dca3e2076cc3735a920a3ca505d382bbc60001b8114612c6657806040517faa1d49a4000000000000000000000000000000000000000000000000000000008152600401612c5d919061389e565b60405180910390fd5b612c708383613135565b505050565b7f000000000000000000000000000000000000000000000000000000000000000073ffffffffffffffffffffffffffffffffffffffff163073ffffffffffffffffffffffffffffffffffffffff1614612cfa576040517fe07c8dba00000000000000000000000000000000000000000000000000000000815260040160405180910390fd5b565b612d9281604051602401612d109190613e53565b6040516020818303038152906040527f41304fac000000000000000000000000000000000000000000000000000000007bffffffffffffffffffffffffffffffffffffffffffffffffffffffff19166020820180517bffffffffffffffffffffffffffffffffffffffffffffffffffffffff83818316178352505050506130c4565b50565b612e2b81604051602401612da9919061392b565b6040516020818303038152906040527ff82c50f1000000000000000000000000000000000000000000000000000000007bffffffffffffffffffffffffffffffffffffffffffffffffffffffff19166020820180517bffffffffffffffffffffffffffffffffffffffffffffffffffffffff83818316178352505050506130c4565b50565b612ec68282604051602401612e449291906156dd565b6040516020818303038152906040527fc3b55635000000000000000000000000000000000000000000000000000000007bffffffffffffffffffffffffffffffffffffffffffffffffffffffff19166020820180517bffffffffffffffffffffffffffffffffffffffffffffffffffffffff83818316178352505050506130c4565b5050565b60007fcd5ed15c6e187e77e9aee88184c21f4f2182ab5827cb3b7e07fbedcd63f03300905090565b6000612efc613094565b905060008160000160009054906101000a900473ffffffffffffffffffffffffffffffffffffffff169050828260000160006101000a81548173ffffffffffffffffffffffffffffffffffffffff021916908373ffffffffffffffffffffffffffffffffffffffff1602179055508273ffffffffffffffffffffffffffffffffffffffff168173ffffffffffffffffffffffffffffffffffffffff167f8be0079c531659141344cd1fd0a4f28419497f9722a3daafe3b4186f6b6457e060405160405180910390a3505050565b600080612fd46131a8565b90508091505090565b612fe56131d3565b612fee81613213565b50565b612ff96131d3565b565b6130918160405160240161300f919061369c565b6040516020818303038152906040527f2c2ecbc2000000000000000000000000000000000000000000000000000000007bffffffffffffffffffffffffffffffffffffffffffffffffffffffff19166020820180517bffffffffffffffffffffffffffffffffffffffffffffffffffffffff83818316178352505050506130c4565b50565b60007f9016d09d72d40fdae2fd8ceac6b6234c7706214fd39c1cd1e609a0528c199300905090565b600033905090565b6130db816130d36132996132ba565b63ffffffff16565b50565b600061310c7f360894a13ba1a3210667c828492db98dca3e2076cc3735a920a3ca505d382bbc60001b6132c5565b60000160009054906101000a900473ffffffffffffffffffffffffffffffffffffffff16905090565b61313e826132cf565b8173ffffffffffffffffffffffffffffffffffffffff167fbc7cd75a20ee27fd9adebab32041f755214dbc6bffa90cc0225b39da2e5c2d3b60405160405180910390a260008151111561319b57613195828261339c565b506131a4565b6131a3613420565b5b5050565b60007ff0c57e16840df040f15088dc2f81fe391c3923bec73e23a9662efc9c229c6a0060001b905090565b6131db61345d565b613211576040517fd7e6bcf800000000000000000000000000000000000000000000000000000000815260040160405180910390fd5b565b61321b6131d3565b600073ffffffffffffffffffffffffffffffffffffffff168173ffffffffffffffffffffffffffffffffffffffff160361328d5760006040517f1e4fbdf7000000000000000000000000000000000000000000000000000000008152600401613284919061369c565b60405180910390fd5b61329681612ef2565b50565b60006a636f6e736f6c652e6c6f679050600080835160208501845afa505050565b6135b8819050919050565b6000819050919050565b60008173ffffffffffffffffffffffffffffffffffffffff163b0361332b57806040517f4c9c8ce3000000000000000000000000000000000000000000000000000000008152600401613322919061369c565b60405180910390fd5b806133587f360894a13ba1a3210667c828492db98dca3e2076cc3735a920a3ca505d382bbc60001b6132c5565b60000160006101000a81548173ffffffffffffffffffffffffffffffffffffffff021916908373ffffffffffffffffffffffffffffffffffffffff16021790555050565b60606000808473ffffffffffffffffffffffffffffffffffffffff16846040516133c69190615749565b600060405180830381855af49150503d8060008114613401576040519150601f19603f3d011682016040523d82523d6000602084013e613406565b606091505b509150915061341685838361347d565b9250505092915050565b600034111561345b576040517fb398979f00000000000000000000000000000000000000000000000000000000815260040160405180910390fd5b565b6000613467612fc9565b60000160089054906101000a900460ff16905090565b6060826134925761348d8261350c565b613504565b600082511480156134ba575060008473ffffffffffffffffffffffffffffffffffffffff163b145b156134fc57836040517f9996b3150000000000000000000000000000000000000000000000000000000081526004016134f3919061369c565b60405180910390fd5b819050613505565b5b9392505050565b60008151111561351f5780518082602001fd5b6040517fd6bda27500000000000000000000000000000000000000000000000000000000815260040160405180910390fd5b6040518061014001604052806135656135c2565b81526020016135726135c2565b8152602001600060ff168152602001600060ff16815260200160001515815260200160008152602001600081526020016000815260200160008152602001600081525090565b6135c0615760565b565b6040518060c00160405280600690602082028036833780820191505090505090565b6000604051905090565b600080fd5b600080fd5b6000819050919050565b61360b816135f8565b811461361657600080fd5b50565b60008135905061362881613602565b92915050565b600060208284031215613644576136436135ee565b5b600061365284828501613619565b91505092915050565b600073ffffffffffffffffffffffffffffffffffffffff82169050919050565b60006136868261365b565b9050919050565b6136968161367b565b82525050565b60006020820190506136b1600083018461368d565b92915050565b6136c08161367b565b81146136cb57600080fd5b50565b6000813590506136dd816136b7565b92915050565b600080fd5b600080fd5b6000601f19601f8301169050919050565b7f4e487b7100000000000000000000000000000000000000000000000000000000600052604160045260246000fd5b613736826136ed565b810181811067ffffffffffffffff82111715613755576137546136fe565b5b80604052505050565b60006137686135e4565b9050613774828261372d565b919050565b600067ffffffffffffffff821115613794576137936136fe565b5b61379d826136ed565b9050602081019050919050565b82818337600083830152505050565b60006137cc6137c784613779565b61375e565b9050828152602081018484840111156137e8576137e76136e8565b5b6137f38482856137aa565b509392505050565b600082601f8301126138105761380f6136e3565b5b81356138208482602086016137b9565b91505092915050565b600080604083850312156138405761383f6135ee565b5b600061384e858286016136ce565b925050602083013567ffffffffffffffff81111561386f5761386e6135f3565b5b61387b858286016137fb565b9150509250929050565b6000819050919050565b61389881613885565b82525050565b60006020820190506138b3600083018461388f565b92915050565b6000602082840312156138cf576138ce6135ee565b5b60006138dd848285016136ce565b91505092915050565b60008115159050919050565b6138fb816138e6565b82525050565b600060208201905061391660008301846138f2565b92915050565b613925816135f8565b82525050565b6000602082019050613940600083018461391c565b92915050565b600081519050919050565b600082825260208201905092915050565b6000819050602082019050919050565b61397b8161367b565b82525050565b600061398d8383613972565b60208301905092915050565b6000602082019050919050565b60006139b182613946565b6139bb8185613951565b93506139c683613962565b8060005b838110156139f75781516139de8882613981565b97506139e983613999565b9250506001810190506139ca565b5085935050505092915050565b60006020820190508181036000830152613a1e81846139a6565b905092915050565b600081519050919050565b600082825260208201905092915050565b6000819050602082019050919050565b600060069050919050565b600081905092915050565b6000819050919050565b600060ff82169050919050565b613a8881613a72565b82525050565b6000613a9a8383613a7f565b60208301905092915050565b6000602082019050919050565b613abc81613a52565b613ac68184613a5d565b9250613ad182613a68565b8060005b83811015613b02578151613ae98782613a8e565b9650613af483613aa6565b925050600181019050613ad5565b505050505050565b613b13816138e6565b82525050565b613b22816135f8565b82525050565b6000819050919050565b613b3b81613b28565b82525050565b61028082016000820151613b586000850182613ab3565b506020820151613b6b60c0850182613ab3565b506040820151613b7f610180850182613a7f565b506060820151613b936101a0850182613a7f565b506080820151613ba76101c0850182613b0a565b5060a0820151613bbb6101e0850182613b19565b5060c0820151613bcf610200850182613b19565b5060e0820151613be3610220850182613b19565b50610100820151613bf8610240850182613b19565b50610120820151613c0d610260850182613b32565b50505050565b6000613c1f8383613b41565b6102808301905092915050565b6000602082019050919050565b6000613c4482613a26565b613c4e8185613a31565b9350613c5983613a42565b8060005b83811015613c8a578151613c718882613c13565b9750613c7c83613c2c565b925050600181019050613c5d565b5085935050505092915050565b60006020820190508181036000830152613cb18184613c39565b905092915050565b61028082016000820151613cd06000850182613ab3565b506020820151613ce360c0850182613ab3565b506040820151613cf7610180850182613a7f565b506060820151613d0b6101a0850182613a7f565b506080820151613d1f6101c0850182613b0a565b5060a0820151613d336101e0850182613b19565b5060c0820151613d47610200850182613b19565b5060e0820151613d5b610220850182613b19565b50610100820151613d70610240850182613b19565b50610120820151613d85610260850182613b32565b50505050565b613d9481613a72565b82525050565b60006102c082019050613db06000830186613cb9565b613dbe610280830185613d8b565b613dcc6102a0830184613d8b565b949350505050565b600081519050919050565b600082825260208201905092915050565b60005b83811015613e0e578082015181840152602081019050613df3565b60008484015250505050565b6000613e2582613dd4565b613e2f8185613ddf565b9350613e3f818560208601613df0565b613e48816136ed565b840191505092915050565b60006020820190508181036000830152613e6d8184613e1a565b905092915050565b613e7e81613b28565b82525050565b600061010082019050613e9a600083018b613d8b565b613ea7602083018a613d8b565b613eb460408301896138f2565b613ec1606083018861391c565b613ece608083018761391c565b613edb60a083018661391c565b613ee860c083018561391c565b613ef560e0830184613e75565b9998505050505050505050565b7f47616d65206973206f7665720000000000000000000000000000000000000000600082015250565b6000613f38600c83613ddf565b9150613f4382613f02565b602082019050919050565b60006020820190508181036000830152613f6781613f2b565b9050919050565b6000606082019050613f83600083018661368d565b613f906020830185613d8b565b613f9d6040830184613d8b565b949350505050565b7f4e487b7100000000000000000000000000000000000000000000000000000000600052601160045260246000fd5b6000613fdf826135f8565b91507fffffffffffffffffffffffffffffffffffffffffffffffffffffffffffffffff820361401157614010613fa5565b5b600182019050919050565b6000614027826135f8565b9150614032836135f8565b925082820190508082111561404a57614049613fa5565b5b92915050565b600061405b82613b28565b915061406683613b28565b92508282019050828112156000831216838212600084121516171561408e5761408d613fa5565b5b92915050565b600061409f826135f8565b91506140aa836135f8565b92508282026140b8816135f8565b915082820484148315176140cf576140ce613fa5565b5b5092915050565b600081905092915050565b50565b60006140f16000836140d6565b91506140fc826140e1565b600082019050919050565b6000614112826140e4565b9150819050919050565b7f5472616e73666572206661696c65642e00000000000000000000000000000000600082015250565b6000614152601083613ddf565b915061415d8261411c565b602082019050919050565b6000602082019050818103600083015261418181614145565b9050919050565b7f4e487b7100000000000000000000000000000000000000000000000000000000600052603260045260246000fd5b60006141c282613a72565b915060ff82036141d5576141d4613fa5565b5b600182019050919050565b6000819050919050565b6000819050919050565b600061420f61420a614205846141e0565b6141ea565b613a72565b9050919050565b61421f816141f4565b82525050565b600060608201905061423a600083018661368d565b6142476020830185614216565b6142546040830184613d8b565b949350505050565b600060069050919050565b6000819050919050565b60008160001c9050919050565b600060ff82169050919050565b600061429e61429983614271565b61427e565b9050919050565b60008160081c9050919050565b60006142c56142c0836142a5565b61427e565b9050919050565b60008160101c9050919050565b60006142ec6142e7836142cc565b61427e565b9050919050565b60008160181c9050919050565b600061431361430e836142f3565b61427e565b9050919050565b60008160201c9050919050565b600061433a6143358361431a565b61427e565b9050919050565b60008160281c9050919050565b600061436161435c83614341565b61427e565b9050919050565b60008160301c9050919050565b600061438861438383614368565b61427e565b9050919050565b60008160381c9050919050565b60006143af6143aa8361438f565b61427e565b9050919050565b60008160401c9050919050565b60006143d66143d1836143b6565b61427e565b9050919050565b60008160481c9050919050565b60006143fd6143f8836143dd565b61427e565b9050919050565b60008160501c9050919050565b600061442461441f83614404565b61427e565b9050919050565b60008160581c9050919050565b600061444b6144468361442b565b61427e565b9050919050565b60008160601c9050919050565b600061447261446d83614452565b61427e565b9050919050565b60008160681c9050919050565b600061449961449483614479565b61427e565b9050919050565b60008160701c9050919050565b60006144c06144bb836144a0565b61427e565b9050919050565b60008160781c9050919050565b60006144e76144e2836144c7565b61427e565b9050919050565b60008160801c9050919050565b600061450e614509836144ee565b61427e565b9050919050565b60008160881c9050919050565b600061453561453083614515565b61427e565b9050919050565b60008160901c9050919050565b600061455c6145578361453c565b61427e565b9050919050565b60008160981c9050919050565b600061458361457e83614563565b61427e565b9050919050565b60008160a01c9050919050565b60006145aa6145a58361458a565b61427e565b9050919050565b60008160a81c9050919050565b60006145d16145cc836145b1565b61427e565b9050919050565b60008160b01c9050919050565b60006145f86145f3836145d8565b61427e565b9050919050565b60008160b81c9050919050565b600061461f61461a836145ff565b61427e565b9050919050565b60008160c01c9050919050565b600061464661464183614626565b61427e565b9050919050565b60008160c81c9050919050565b600061466d6146688361464d565b61427e565b9050919050565b60008160d01c9050919050565b600061469461468f83614674565b61427e565b9050919050565b60008160d81c9050919050565b60006146bb6146b68361469b565b61427e565b9050919050565b60008160e01c9050919050565b60006146e26146dd836146c2565b61427e565b9050919050565b60008160e81c9050919050565b6000614709614704836146e9565b61427e565b9050919050565b60008160f01c9050919050565b600061473061472b83614710565b61427e565b9050919050565b60008160f81c9050919050565b600061475761475283614737565b61427e565b9050919050565b6147678161425c565b6147718184613a5d565b92508261477d83614267565b60008015614aa9575b83600160200382011015614aa85781546147a8876147a38361428b565b613a7f565b6020870196506147c0876147bb836142b2565b613a7f565b6020870196506147d8876147d3836142d9565b613a7f565b6020870196506147f0876147eb83614300565b613a7f565b6020870196506148088761480383614327565b613a7f565b6020870196506148208761481b8361434e565b613a7f565b6020870196506148388761483383614375565b613a7f565b6020870196506148508761484b8361439c565b613a7f565b60208701965061486887614863836143c3565b613a7f565b6020870196506148808761487b836143ea565b613a7f565b6020870196506148988761489383614411565b613a7f565b6020870196506148b0876148ab83614438565b613a7f565b6020870196506148c8876148c38361445f565b613a7f565b6020870196506148e0876148db83614486565b613a7f565b6020870196506148f8876148f3836144ad565b613a7f565b6020870196506149108761490b836144d4565b613a7f565b60208701965061492887614923836144fb565b613a7f565b6020870196506149408761493b83614522565b613a7f565b6020870196506149588761495383614549565b613a7f565b6020870196506149708761496b83614570565b613a7f565b6020870196506149888761498383614597565b613a7f565b6020870196506149a08761499b836145be565b613a7f565b6020870196506149b8876149b3836145e5565b613a7f565b6020870196506149d0876149cb8361460c565b613a7f565b6020870196506149e8876149e383614633565b613a7f565b602087019650614a00876149fb8361465a565b613a7f565b602087019650614a1887614a1383614681565b613a7f565b602087019650614a3087614a2b836146a8565b613a7f565b602087019650614a4887614a43836146cf565b613a7f565b602087019650614a6087614a5b836146f6565b613a7f565b602087019650614a7887614a738361471d565b613a7f565b602087019650614a9087614a8b83614744565b613a7f565b60208701965060018301925050602081019050614786565b5b600115614f74578154600115614ad857614acb87614ac68361428b565b613a7f565b6020870196506001820191505b600115614afe57614af187614aec836142b2565b613a7f565b6020870196506001820191505b600115614b2457614b1787614b12836142d9565b613a7f565b6020870196506001820191505b600115614b4a57614b3d87614b3883614300565b613a7f565b6020870196506001820191505b600115614b7057614b6387614b5e83614327565b613a7f565b6020870196506001820191505b600115614b9657614b8987614b848361434e565b613a7f565b6020870196506001820191505b600015614bbc57614baf87614baa83614375565b613a7f565b6020870196506001820191505b600015614be257614bd587614bd08361439c565b613a7f565b6020870196506001820191505b600015614c0857614bfb87614bf6836143c3565b613a7f565b6020870196506001820191505b600015614c2e57614c2187614c1c836143ea565b613a7f565b6020870196506001820191505b600015614c5457614c4787614c4283614411565b613a7f565b6020870196506001820191505b600015614c7a57614c6d87614c6883614438565b613a7f565b6020870196506001820191505b600015614ca057614c9387614c8e8361445f565b613a7f565b6020870196506001820191505b600015614cc657614cb987614cb483614486565b613a7f565b6020870196506001820191505b600015614cec57614cdf87614cda836144ad565b613a7f565b6020870196506001820191505b600015614d1257614d0587614d00836144d4565b613a7f565b6020870196506001820191505b600015614d3857614d2b87614d26836144fb565b613a7f565b6020870196506001820191505b600015614d5e57614d5187614d4c83614522565b613a7f565b6020870196506001820191505b600015614d8457614d7787614d7283614549565b613a7f565b6020870196506001820191505b600015614daa57614d9d87614d9883614570565b613a7f565b6020870196506001820191505b600015614dd057614dc387614dbe83614597565b613a7f565b6020870196506001820191505b600015614df657614de987614de4836145be565b613a7f565b6020870196506001820191505b600015614e1c57614e0f87614e0a836145e5565b613a7f565b6020870196506001820191505b600015614e4257614e3587614e308361460c565b613a7f565b6020870196506001820191505b600015614e6857614e5b87614e5683614633565b613a7f565b6020870196506001820191505b600015614e8e57614e8187614e7c8361465a565b613a7f565b6020870196506001820191505b600015614eb457614ea787614ea283614681565b613a7f565b6020870196506001820191505b600015614eda57614ecd87614ec8836146a8565b613a7f565b6020870196506001820191505b600015614f0057614ef387614eee836146cf565b613a7f565b6020870196506001820191505b600015614f2657614f1987614f14836146f6565b613a7f565b6020870196506001820191505b600015614f4c57614f3f87614f3a8361471d565b613a7f565b6020870196506001820191505b600015614f7257614f6587614f6083614744565b613a7f565b6020870196506001820191505b505b505050505050565b600060ff82169050919050565b6000614f9c614f97836142cc565b614f7c565b9050919050565b6000819050919050565b6000614fc0614fbb83614271565b614fa3565b9050919050565b6000819050919050565b6000614fe4614fdf83614271565b614fc7565b9050919050565b61028082016000808301615002600086018261475e565b506001830161501460c086018261475e565b50600283015490506150258161428b565b615033610180860182613a7f565b5061503d816142b2565b61504b6101a0860182613a7f565b5061505581614f89565b6150636101c0860182613b0a565b506003830154905061507481614fad565b6150826101e0860182613b19565b506004830154905061509381614fad565b6150a1610200860182613b19565b50600583015490506150b281614fad565b6150c0610220860182613b19565b50600683015490506150d181614fad565b6150df610240860182613b19565b50600783015490506150f081614fd1565b6150fe610260860182613b32565b5050505050565b60006102808201905061511b6000830184614feb565b92915050565b7f42616c616e63652073686f756c642062652067726561746572207468616e206160008201527f6d6f756e74000000000000000000000000000000000000000000000000000000602082015250565b600061517d602583613ddf565b915061518882615121565b604082019050919050565b600060208201905081810360008301526151ac81615170565b9050919050565b7f5374616b65732073686f756c64206265206174206c6561737420302e3031206560008201527f7468657200000000000000000000000000000000000000000000000000000000602082015250565b600061520f602483613ddf565b915061521a826151b3565b604082019050919050565b6000602082019050818103600083015261523e81615202565b9050919050565b7f4e487b7100000000000000000000000000000000000000000000000000000000600052601260045260246000fd5b600061527f826135f8565b915061528a836135f8565b92508261529a57615299615245565b5b828204905092915050565b7f5374616b65732073686f756c64206265206c657373207468616e20636f6e747260008201527f6163742062616c616e6365000000000000000000000000000000000000000000602082015250565b6000615301602b83613ddf565b915061530c826152a5565b604082019050919050565b60006020820190508181036000830152615330816152f4565b9050919050565b6000819050919050565b600067ffffffffffffffff82169050919050565b600061537061536b61536684615337565b6141ea565b615341565b9050919050565b61538081615355565b82525050565b600060208201905061539b6000830184615377565b92915050565b7f5374616b65732073686f756c64206265206174206c6561737420302e3120657460008201527f6865720000000000000000000000000000000000000000000000000000000000602082015250565b60006153fd602383613ddf565b9150615408826153a1565b604082019050919050565b6000602082019050818103600083015261542c816153f0565b9050919050565b600061543e82613a72565b915061544983613a72565b92508261545957615458615245565b5b828204905092915050565b600061546f82613b28565b915061547a83613b28565b92508282039050818112600084121682821360008512151617156154a1576154a0613fa5565b5b92915050565b60006154b282613a72565b91506154bd83613a72565b9250828201905060ff8111156154d6576154d5613fa5565b5b92915050565b60006154e782613a72565b91506154f283613a72565b9250828203905060ff81111561550b5761550a613fa5565b5b92915050565b600061551c82613a72565b91506000820361552f5761552e613fa5565b5b600182039050919050565b6000819050919050565b615555615550826135f8565b61553a565b82525050565b60008160601b9050919050565b60006155738261555b565b9050919050565b600061558582615568565b9050919050565b61559d6155988261367b565b61557a565b82525050565b6000819050919050565b6155be6155b982613885565b6155a3565b82525050565b60006155d08288615544565b6020820191506155e0828761558c565b6014820191506155f0828661558c565b60148201915061560082856155ad565b6020820191506156108284615544565b6020820191508190509695505050505050565b600061562e826135f8565b9150615639836135f8565b92508261564957615648615245565b5b828206905092915050565b6000604082019050818103600083015261566e8185613e1a565b905061567d602083018461391c565b9392505050565b61568d81613885565b811461569857600080fd5b50565b6000815190506156aa81615684565b92915050565b6000602082840312156156c6576156c56135ee565b5b60006156d48482850161569b565b91505092915050565b600060408201905081810360008301526156f78185613e1a565b905061570660208301846138f2565b9392505050565b600081519050919050565b60006157238261570d565b61572d81856140d6565b935061573d818560208601613df0565b80840191505092915050565b60006157558284615718565b915081905092915050565b7f4e487b7100000000000000000000000000000000000000000000000000000000600052605160045260246000fdfea26469706673582212205d15a124db0d7b8d89c5a52791f769ac75a7dc0e3340582d3f8d7248e99edc0d64736f6c63430008160033",
  "linkReferences": {},
  "deployedLinkReferences": {}
}